:100000000C94AB000C94D3000C94D3000C94D3004C
:100010000C94D3000C94D3000C94D3000C94D30014
:100020000C94D3000C94D3000C94D3000C94D30004
:100030000C94D3000C94D3000C94D3000C94D300F4
:100040000C946E070C94D3000C94DE070C94B80744
:100050000C94D3000C94D3000C94D3000C94D300D4
:100060000C9410080C94D30052657475726E696E0E
:100070006720746F2050726576696F7573204D6FBD
:100080006465204661696C7572652E2E2E0053657D
:100090007474696E6720426175647261746520537F
:1000A00075636365737366756C2100456E74657264
:1000B000696E6720436F6E66696775726174696FF8
:1000C0006E204D6F64652053756363657373667549
:1000D0006C2100456E746572696E6720436F6E66B1
:1000E000696775726174696F6E204D6F6465204633
:1000F00061696C7572652E2E2E00000000002400D0
:1001000027002A0000000000250028002B00000026
:10011000000023002600290004040404040404044D
:1001200002020202020203030303030301020408A2
:100130001020408001020408102001020408102051
:100140000000000800020100000304070000000096
:10015000000000002F0911241FBECFEFD8E0DEBF42
:10016000CDBF11E0A0E0B1E0E0E5F1E202C0059012
:100170000D92A838B107D9F723E0A8E8B1E001C093
:100180001D92A032B207E1F710E0CBEAD0E004C044
:100190002197FE010E94BB0DCA3AD107C9F70E9400
:1001A0008A090C94A6100C9400008CBD9DBD089586
:1001B000833081F028F4813099F08230A9F00895DD
:1001C0008730A9F08830C9F08430B1F48091800084
:1001D0008F7D03C0809180008F7780938000089589
:1001E00084B58F7784BD089584B58F7DFBCF8091D2
:1001F000B0008F778093B00008958091B0008F7D1C
:10020000F9CFCF93DF93282F30E0F901E05CFE4F68
:100210008491F901E45DFE4FD491F901E85EFE4F4F
:10022000C491CC23A1F081110E94D800EC2FF0E002
:10023000EE0FFF1FE25FFE4FA591B491EC91ED230D
:1002400081E090E009F480E0DF91CF91089580E0B3
:1002500090E0FACF1F93CF93DF93282F30E0F9017E
:10026000E05CFE4F8491F901E45DFE4FD491F90109
:10027000E85EFE4FC491CC23A9F0162F81110E9495
:10028000D800EC2FF0E0EE0FFF1FEC5FFE4FA591C2
:10029000B4918FB7F894EC91111108C0D095DE237A
:1002A000DC938FBFDF91CF911F910895DE2BF8CFA4
:1002B000CF93DF9390E0FC01E45DFE4F2491885ED4
:1002C0009E4FFC0184918823D1F090E0880F991F04
:1002D000FC01E650FF4FA591B491FC01EC5FFE4F8D
:1002E000C591D49161110EC09FB7F8948C91E22F03
:1002F000E0958E238C932881E223E8839FBFDF91D2
:10030000CF9108958FB7F894EC91E22BEC938FBFC7
:10031000F6CF3FB7F89480914E0290914F02A09192
:100320005002B091510226B5A89B05C02F3F19F08D
:100330000196A11DB11D3FBFBA2FA92F982F882765
:10034000BC01CD01620F711D811D911D42E0660F40
:10035000771F881F991F4A95D1F708958F929F9212
:10036000AF92BF92CF92DF92EF92FF924B015C016E
:100370000E9489016B017C010E9489016C197D0931
:100380008E099F09683E734081059105A8F321E01D
:10039000821A9108A108B10888EEC80E83E0D81E21
:1003A000E11CF11C81149104A104B10429F7FF9010
:1003B000EF90DF90CF90BF90AF909F908F90089577
:1003C00008950895AF92BF92CF92DF92EF92FF927D
:1003D0000F931F93CF93DF936C017B018B01040F6D
:1003E000151FEB015E01AE18BF08C017D10759F009
:1003F0006991D601ED91FC910190F081E02DC6014B
:100400000995892B79F7C501DF91CF911F910F9144
:10041000FF90EF90DF90CF90BF90AF900895FC01D8
:10042000538D448D252F30E0842F90E0821B930B59
:10043000541710F0CF96089501970895FC01918DFF
:10044000828D981761F0A28DAE0FBF2FB11D5D9602
:100450008C91928D9F5F9F73928F90E008958FEFA4
:100460009FEF0895FC01918D828D981731F0828D58
:10047000E80FF11D858D90E008958FEF9FEF0895AF
:10048000FC01918D228D892F90E0805C9F4F821B13
:1004900091098F739927089586E592E00E944002A2
:1004A00021E0892B09F420E0822F089580E090E07C
:1004B000892B29F00E944C0281110C9400000895B0
:1004C000FC01A48DA80FB92FB11DA35ABF4F2C91C9
:1004D000848D90E001968F739927848FA689B789C0
:1004E0002C93A089B1898C91837080648C93938DB7
:1004F000848D981306C00288F389E02D80818F7D5A
:1005000080830895EF92FF920F931F93CF93DF9311
:10051000EC0181E0888F9B8D8C8D98131AC0E8893F
:10052000F989808185FF15C09FB7F894EE89FF890E
:100530006083E889F98980818370806480839FBFAC
:1005400081E090E0DF91CF911F910F91FF90EF90AC
:100550000895F62E0B8D10E00F5F1F4F0F731127BC
:10056000E02E8C8D8E110CC00FB607FCFACFE889F7
:10057000F989808185FFF5CFCE010E946002F1CF1D
:10058000EB8DEC0FFD2FF11DE35AFF4FF0829FB76B
:10059000F8940B8FEA89FB8980818062CFCFCF935B
:1005A000DF93EC01888D8823B9F0AA89BB89E8899B
:1005B000F9898C9185FD03C0808186FD0DC00FB641
:1005C00007FCF7CF8C9185FFF2CF808185FFEDCFBF
:1005D000CE010E946002E9CFDF91CF910895089586
:1005E0002091C901260F3327331F21323105ECF446
:1005F00020911202FC0190E080E0243069F082E05A
:100600000895A091C9012191AC0147555E4FA40FF7
:10061000B52FB11D2C930196861798F38091C901CF
:10062000680F6093C90180E0089581E008951092F9
:10063000120281E0809311021092EC0161E082E1EC
:100640000E942A0161E083E10E942A01E9EBF0E0C7
:1006500080818E7F808380818D7F808388E48093FA
:10066000B80085E48093BC000895CF93DF9391E0B8
:100670009093A8018823B9F0C091B800D091BA0036
:100680008091BC008A7B8093BC0060E082E10E9484
:100690002A0160E083E10E942A010E941703D0939F
:1006A000BA00C093B800DF91CF9108950895E0910A
:1006B000410280914002E81730F4F0E0E857FE4F25
:1006C000808190E008958FEF9FEF0895909141020F
:1006D000809140022FEF3FEF981748F4E92FF0E0A8
:1006E000E857FE4F208130E09F5F90934102C9019F
:1006F00008958091400290914102891B990B0895C1
:10070000CF92DF92EF92FF920F931F93CF93DF93DD
:100710007C01CB018A0120911802222389F0EB0190
:100720006B01C40ED51ECC15DD0569F06991D701AA
:10073000ED91FC910190F081E02DC7010995F3CF77
:10074000642F0E94F002C801DF91CF911F910F9199
:10075000FF90EF90DF90CF900895CF93DF931F929B
:10076000CDB7DEB76983209118022223F9F02091DA
:100770003E02203258F021E030E0FC013383228336
:1007800090E080E00F90DF91CF91089580913F023B
:10079000E82FF0E0E75EFD4F998190838F5F8093B3
:1007A0003F0280933E0281E090E0ECCF61E0CE0119
:1007B00001960E94F002F7CFCF92DF92EF92FF9264
:1007C0000F931F93CF93DF93FC01C48121E020930B
:1007D0001802C093390210923F0210923E028385A4
:1007E000682B83EF92E00E94AD03D0913E02D1329C
:1007F00008F092C00E9489016B017C018091120275
:10080000811165C082E08093120281E08093110221
:100810008FEF8093100210920F02D0930E02A9E185
:10082000B2E0EEEEF1E080E0D81385C01092ED0169
:100830008091ED01CC0FC82BC093ED018091EC01AC
:10084000813009F07CC01092EC010E9489016B019B
:100850007C018091ED018093BB0080911402909106
:100860001502A0911602B0911702892B8A2B8B2BAF
:1008700099F00E94890100911402109115022091B3
:100880001602309117026C197D098E099F0906170F
:10089000170728073907E0F18091BC0083FDD9CF05
:1008A00085EC8093BC000E9489016B017C018091E2
:1008B0001202823009F445C0809110028F3F61F12D
:1008C00080911002803241F18091100225C0809108
:1008D000140290911502A0911602B0911702892B73
:1008E0008A2B8B2B09F48ACF0E9489010091140274
:1008F0001091150220911602309117026C197D0992
:100900008E099F09061717072807390708F076CFC1
:10091000809113020E94350310923F0210923E0212
:1009200010921802DF91CF911F910F91FF90EF90DD
:10093000DF90CF9008959D9191938F5F75CF85EE55
:10094000B0CF8091140290911502A0911602B0913F
:100950001702892B8A2B8B2B09F4A9CF0E948901BE
:100960000091140210911502209116023091170285
:100970006C197D098E099F09061717072807390783
:1009800008F095CFC5CF90E080E0089508958EBD22
:1009900000000DB407FEFDCF8EB508951F93CF93D1
:1009A000DF93182F80E591E00E94D500CCE0D3E0E2
:1009B00060E08A890E942A0183E00E94C704812F97
:1009C0000E94C70480E00E94C704182F61E08A8952
:1009D0000E942A01812FDF91CF911F910895FF92EC
:1009E0000F931F93CF93DF93F82E062F142F80E5DC
:1009F00091E00E94D500CCE0D3E060E08A890E94BB
:100A00002A0185E00E94C7048F2D0E94C704802F11
:100A10000E94C704812F0E94C70461E08A89DF9188
:100A2000CF911F910F91FF900C942A01CF93DF93E8
:100A3000D82F2FB7F8948091520290915302A09131
:100A40005402B09155022FBFC82F4D2F60EE8FE09A
:100A50000E94EF048EE00E94CE04807ED81791F0B1
:100A60002FB7F8948091520290915302A0915402B2
:100A7000B09155022FBF8C1B893C38F381E0DF9188
:100A8000CF91089580E0FBCFCF93DF93C82F8EE006
:100A90000E94CE04807E8032F9F4C032E9F08BE20D
:100AA0000E94CE04D82FD07486FD05C040E460E4D7
:100AB0008BE20E94EF0440E460E48CE20E94EF04C9
:100AC00080E60E941605811111C0D11105C040E0D9
:100AD00060E48BE20E94EF0440E060E48CE20E945C
:100AE000EF048C2FDF91CF910C94160581E0DF91FC
:100AF000CF9108950F931F93CF93DF93082F162F55
:100B000080E591E00E94D500CCE0D3E060E08A89E6
:100B10000E942A0182E00E94C704802F0E94C7041D
:100B2000812F0E94C70461E08A89DF91CF911F91D4
:100B30000F910C942A01FF920F931F93CF93DF9391
:100B4000C82FF62E172F042F80E591E00E94D500C4
:100B500060E080911E030E942A0182E00E94C70487
:100B60008C2F0E94C704CF2DD12F0C0F1D2F111DCC
:100B7000C017D10721F089910E94C704F9CF61E025
:100B800080911E03DF91CF911F910F91FF900C94E4
:100B90002A01CF93DF9300D000D0CDB7DEB71C82FF
:100BA0001B82613081F498E09A83198244E0BE018F
:100BB0006F5F7F4F0E949B050F900F900F900F90DB
:100BC000DF91CF9108951A82F0CFFF920F931F9378
:100BD000CF93DF93C82FF62E172F042F80E591E0D7
:100BE0000E94D50060E080911E030E942A0183E0EC
:100BF0000E94C7048C2F0E94C704CF2DD12F0C0F49
:100C00001D2F111DC017D10729F080E00E94C704D5
:100C10008993F8CF61E080911E03DF91CF911F91FE
:100C20000F91FF900C942A010F931F93CF93DF93A2
:100C300000D000D0CDB7DEB7182F10920C03109261
:100C40000D0310920E0310920F031092100344E054
:100C5000BE016F5F7F4F0E94E5052A81898138E0E0
:100C6000839FC0011124422F50E065E055954795C0
:100C70006A95E1F7840F951F092E000CAA0BBB0B98
:100C800080930D0390930E03A0930F03B093100372
:100C900023FF29C032E0880F991FAA1FBB1F3A9576
:100CA000D1F72370820F911DA11DB11DBA2FA92F5D
:100CB000982F88272B81820F911DA11DB11DBA2F5E
:100CC000A92F982F88272C81820F911DA11DB11D5E
:100CD00080930D0390930E03A0930F03B093100322
:100CE00081E080930C038FEF810F0E94CE04082FC8
:100CF00084E0810F0E94CE048930D8F480931103E0
:100D000003FF19C081E080931A03409111034F70D3
:100D10004093110362E173E085E0810F0E94E505D5
:100D20000F900F900F900F90DF91CF911F910F9127
:100D3000089588E0E3CF10921A03E7CF0F931F9333
:100D4000CF938C01C62F0E94DC036C2F6460C80116
:100D50000E94DC036C2F6B7FC8010E94DC0383ECD4
:100D600090E00197F1F7CF911F910F9108950F93A4
:100D70001F93CF93DF938C01D62FC42F607F642BFA
:100D80000E949E0680E1D89FB00111246C2BC801FF
:100D9000DF91CF911F910F910C949E06CF93DF931B
:100DA000CDB7DEB728970FB6F894DEBF0FBECDBF24
:100DB00098E0E0E0F1E0DE01119601900D929A9545
:100DC000E1F790910803981708F48FEF90E0880FEF
:100DD000991F21E030E02C0F3D1F820F931FFC0173
:100DE0006081606840E080E093E028960FB6F89458
:100DF000DEBF0FBECDBFDF91CF910C94B70641E0AF
:100E00000E94B70681E090E00895FB010190002068
:100E1000E9F73197AF01461B570BDC01ED91FC91CF
:100E20000280F381E02D09940F931F93CF93DF93FA
:100E30008C01D0E0C0E0F801EC0FFD1F6491662347
:100E400041F086E592E00E948202892B11F0219602
:100E5000F2CF6BE371E086E592E00E9405078C0F0C
:100E60009D1FDF91CF911F910F91089585ED809384
:100E7000BC008091140290911502A0911602B091CD
:100E800017020796A11DB11D23E0B695A79597956A
:100E900087952A95D1F72091BC0024FD03C01092BC
:100EA00012020895409114025091150260911602A9
:100EB00070911702452B462B472B69F30097A1052C
:100EC000B10541F02AE22A95F1F700C00197A10986
:100ED000B109E1CF809113020C9435031F920F9258
:100EE0000FB60F9211242F933F938F939F93AF933D
:100EF000BF938091520290915302A0915402B091FD
:100F0000550230914D0223E0230F2D3758F50196FD
:100F1000A11DB11D20934D02809352029093530264
:100F2000A0935402B093550280914E0290914F02CB
:100F3000A0915002B09151020196A11DB11D809364
:100F40004E0290934F02A0935002B0935102BF9172
:100F5000AF919F918F913F912F910F900FBE0F9066
:100F60001F90189526E8230F0296A11DB11DD2CF20
:100F70001F920F920FB60F9211242F933F934F930E
:100F80005F936F937F938F939F93AF93BF93EF93F1
:100F9000FF9386E592E00E946002FF91EF91BF917E
:100FA000AF919F918F917F916F915F914F913F9101
:100FB0002F910F900FBE0F901F9018951F920F92B8
:100FC0000FB60F9211242F938F939F93EF93FF935C
:100FD000E0916602F09167028081E0916C02F091ED
:100FE0006D0282FD1BC0908180916F028F5F8F73B5
:100FF00020917002821741F0E0916F02F0E0EA5A0E
:10100000FD4F958F80936F02FF91EF919F918F918C
:101010002F910F900FBE0F901F9018958081F4CFE5
:101020001F920F920FB60F9211242F933F934F935D
:101030005F936F937F938F939F93AF93BF93EF9340
:10104000FF938091B900887F803609F44AC0F0F59B
:10105000883209F4A7C018F5803109F49BC0B8F4B0
:10106000882309F4F9C0883009F494C0FF91EF9106
:10107000BF91AF919F918F917F916F915F914F91B0
:101080003F912F910F900FBE0F901F9018958831B0
:1010900009F488C0803251F78093100214C0803464
:1010A00009F49DC040F48033B9F38833F9F6809396
:1010B000100285ECB0C0803509F485C0883509F48C
:1010C00096C0883499F60E943607D0CF883909F443
:1010D0008CC038F5883729F050F4883611F0803705
:1010E00029F683E0809312021092EB0157C08838F2
:1010F00009F47BC0803919F0803809F0B7CF8091AE
:10110000EB01803208F071C0E091EB0181E08E0FBD
:101110008093EB018091BB00F0E0E553FE4F8083AC
:101120003DC0803B39F0E0F4803A09F479C0883A58
:1011300009F09CCF84E0809312021092CA011092B1
:10114000C901E0913C02F0913D0209958091C901ED
:1011500081110FC081E08093C9011092A90109C0DB
:10116000803C09F4A6CF883C09F4A3CF883B09F062
:101170007DCFE091CA0181E08E0F8093CA01F0E03B
:10118000E755FE4F80818093BB009091CA0180910A
:10119000C90129C08091ED018093BB0085EC80934B
:1011A000BC0064CF90910F0280910E02981758F501
:1011B000E0910F0281E08E0F80930F02F0E0E25188
:1011C000FE4F8081E9CFE0910F0281E08E0F809386
:1011D0000F028091BB00F0E0E251FE4F80839091BE
:1011E0000F0280910E029817C8F285E8D8CFE091DF
:1011F0000F0281E08E0F80930F028091BB00F0E020
:10120000E251FE4F80838091110281115CCF81E019
:101210008093EC0184EA8093BC001092120226CFE6
:1012200085EC8093BC00109212028091EB01803219
:1012300030F4E091EB01F0E0E553FE4F1082609155
:10124000EB0170E0E0913A02F0913B028BEC91E00F
:1012500009951092EB010ACF1092100234CFCF9370
:10126000DF93E6E5F2E01382128288EE93E0A0E0DD
:10127000B0E084839583A683B7832FE031E0318388
:10128000208325EC30E03587248724EC30E0378755
:10129000268720EC30E0318B208B21EC30E0338B43
:1012A000228B22EC30E0358B248B26EC30E0378B20
:1012B000268B118E128E138E148EE3EFF2E01382C2
:1012C000128284839583A683B78381E291E0918320
:1012D0008083CCE0D3E08AE08A8B61E00E942A011F
:1012E00061E08A890E9458018FEF92E0998B888B88
:1012F000E0E0F3E01382128283E391E09183808344
:1013000087E2848380E1818782E082871386DF9190
:10131000CF910895CF93DF93CDB7DEB7AD970FB6DA
:10132000F894DEBF0FBECDBF789484B5826084BDD3
:1013300084B5816084BD85B5826085BD85B58160D9
:1013400085BD80916E00816080936E001092810057
:101350008091810082608093810080918100816012
:1013600080938100809180008160809380008091D3
:10137000B10084608093B1008091B000816080935F
:10138000B00080917A00846080937A0080917A0026
:10139000826080937A0080917A00816080937A00E5
:1013A00080917A00806880937A001092C100E09169
:1013B0006602F091670282E08083E0916202F09120
:1013C00063021082E0916402F091650280E1808303
:1013D00010926E02E0916A02F0916B0286E08083C7
:1013E000E0916802F0916902808180618083E091E0
:1013F0006802F0916902808188608083E0916802D0
:10140000F0916902808180688083E0916802F091A8
:10141000690280818F7D808361E08DE00E945801A8
:1014200061E083E00E94580160E082E00E94580180
:10143000109241021092400210923F0210923E021E
:101440000E94170380EE91E090933D0280933C024E
:1014500081EE91E090933B0280933A020E94170341
:101460001092050380910A03823018F098E090935F
:1014700005038093080362E370E080E090E00E943F
:10148000AE0160910B0380E093E00E94DC0368EE04
:1014900073E080E090E00E94AE0160E380E093E0C2
:1014A0000E949E060BE416E4C8010197F1F760E381
:1014B00080E093E00E949E06C8010197F1F760E387
:1014C00080E093E00E949E0683E592E00197F1F7A9
:1014D00060E280E093E00E949E06609105036062F6
:1014E00040E080E093E00E94B70684E0809306032A
:1014F00040E06CE080E093E00E94B70640E061E0ED
:1015000080E093E00E94B7060BE31FE1C80101975A
:10151000F1F782E08093070340E066E080E093E02B
:101520000E94B70640E062E080E093E00E94B706C8
:10153000C8010197F1F788E080930B0360E080E039
:1015400093E00E94DC0380E00E94CE066EE371E02F
:1015500080E093E00E94050719A281E388A390E34D
:101560009F8F8E8FBE01625E7F4F80E093E00E946E
:10157000050781E00E94CE0668E471E080E093E018
:101580000E94050752E2A52E51E0B52E66E3E62E35
:1015900061E0F62E70E4C72EDFB6F8948091420227
:1015A000811125C0F5018491F7019491E82FF0E0B5
:1015B000EE0FFF1FE650FF4FA591B4918C91982339
:1015C00021F461E08AE00E942A0161E08AE00E9441
:1015D00058018CB580618CBD8CB580648CBD61E098
:1015E0008DE00E94580161E08BE00E9458018091DB
:1015F00042028F5F80934202DFBE80E591E00E944D
:10160000D50060E080911E030E942A0180EC0E94B8
:10161000C70461E080911E030E942A0165E070E02A
:1016200080E090E00E94AE01C0921F0380E80E941B
:101630004405882359F083ED90E00E94140768EC7C
:1016400070E080E090E00E94AE01A6CF8BEA90E0CF
:101650000E94140760E48AE20E947A0565EE89E23E
:101660000E947A0563E888E20E947A058EE890E09D
:101670000E94140761E080E20E94C90561E084E2F3
:101680000E94C90561E080E00E94C90560E084E035
:101690000E94C90561E088E00E94C90560E080E120
:1016A0000E94C90561E084E10E94C90560E088E10B
:1016B0000E94C90510E360E0812F0E947A0560E076
:1016C00080E1810F0E947A0560E080E2810F0E9434
:1016D0007A051F5F1E3379F760E080E60E947A0585
:1016E00060E080E70E947A0563E08BE20E947A0561
:1016F0006CE38CE00E947A0560E08DE00E947A0540
:1017000044E664E680E60E94EF0440E660E680E797
:101710000E94EF0480911F030E944405882309F46E
:101720009EC088E690E089CF2AA53BA50217130743
:1017300009F056C110E002E05EC1843C9940A10569
:10174000B10508F068C14091110362E173E085E0E2
:10175000810F0E949B0580911A03813029F48091AA
:1017600011038064809311036091110384E0810F61
:101770000E947A0580910D0390910E03A0910F03B2
:10178000B091100320910C032130D1F58C839B8301
:10179000CD01AA27BB27282F220F220F220F207E40
:1017A000382F33703860232B2A8335E09695879540
:1017B0003A95E1F7898344E0B501812F0E949B05AA
:1017C00099249A94910E48E068E0892D0E94EF04D4
:1017D0000E9489011B012C01892D0E94CE04182F23
:1017E0000E948901DC01CB0182199309A409B50982
:1017F00013FF14C0843C9940A105B10568F30BC1E7
:101800009C0193E0369527959A95E1F72983829577
:10181000880F807E8A831C821B82CDCF843C9940B6
:10182000A105B10508F0F7C061E08DE00E942A0132
:10183000D701C601805B9F4FAF4FBF4F80934302DC
:1018400090934402A0934502B0934602E4C011FF76
:1018500068C081E70E94140640E062E03CC110923B
:101860001F0380E00E94440540E061E080E093E0D7
:101870000E94B7068BE39FE10197F1F781E00E9498
:10188000CE0667E771E080E093E00E940507609074
:1018900008017090090180900A01CE0104969BA76F
:1018A0008AA7FE01B296FDA7ECA744C010E000E0B5
:1018B000423028F00AA11BA110270127102783E03E
:1018C0000E94010161E0892B09F060E083E00E9441
:1018D0002A011F930F9377E0D722EE24FF24FF9273
:1018E000EF92DF92CF9287E691E09F938F931F92C2
:1018F000F1E1FF9321E030E02C0F3D1F3F932F9348
:101900000E94C10D81E00E94CE06BE016F5F7F4F35
:1019100080E093E00E9405070FB6F894DEBF0FBE8B
:10192000CDBF60E070E0672B29F00E944C0281116E
:101930000E9400008FB7F894C0905202D0905302DA
:10194000E0905402F09055028FBF8091490290912F
:101950004A02A0914B02B0914C02A7019601281BAC
:10196000390B4A0B5B0BDA01C901883E9340A10594
:10197000B10508F471C0C0924902D0924A02E092C7
:101980004B02F0924C0280914702909148020196DE
:1019900090934802809347029AA38BA341E051E0C1
:1019A00060E070E040930D0350930E0360930F03CB
:1019B0007093100310921A0310920C0352E050938C
:1019C000110390931203809313030E9489011B015A
:1019D0002C0169827A828B828E010F5F1F4F580122
:1019E000F80191908F01892D0E94CE0483FD9CCE39
:1019F00011E0190D00E00E948901DC01CB01821980
:101A00009309A409B509023009F097CE843C9940A6
:101A1000A105B105F0F2809148028F9380914702B1
:101A20008F9371E07F937F9388E591E09F938F93ED
:101A30001F92F1E1FF93BF92AF920E94C10D80E02F
:101A40000E94CE06B50180E093E00E9405070FB624
:101A5000F894DEBF0FBECDBF809143029091440247
:101A6000A0914502B09146020097A105B10589F009
:101A7000C816D906EA06FB0660F060E08DE00E9419
:101A80002A011092430210924402109245021092D1
:101A9000460282E00E940101892B09F042CF80E5D5
:101AA00091E00E94D50060E080911E030E942A010F
:101AB00080EA0E94C70480E00E94C704182F61E0FA
:101AC00080911E030E942A0110FFC1CE81E60E9470
:101AD000140640E061E08CE20E94EF0480910C0368
:101AE000882389F080910D0390910E03A0910F033C
:101AF000B0911003B06880930D0390930E03A093F0
:101B00000F03B093100380911A03882389F080910A
:101B10000D0390910E03A0910F03B0911003B064D8
:101B200080930D0390930E03A0930F03B0931003C3
:101B300080911103893018F088E080931103C090E0
:101B40000D03D0900E03E0900F03F090100340912E
:101B50001103A2E1B3E0FE01B296842F90E09F0151
:101B60006CA57DA5261B370B281739070CF09ECED8
:101B70002D912193F4CFEE0FFF1F0590F491E02DEE
:101B80000994AEE0B0E0E7ECFDE00C947D100D8927
:101B90001E898F89988D26E02C831A83098397FFED
:101BA00002C080E090E801979E838D83AE01455E80
:101BB0005F4F698D7A8DCE0101960E94F10D4D81A6
:101BC0005E8157FD0AC02F813885421753070CF4F8
:101BD0009A01020F131FF80110822E96E4E00C9474
:101BE0009910ABE0B0E0E7EFFDE00C946F107C01E2
:101BF0003B018A01FC0117821682838181FFC8C1E3
:101C0000CE0101965C01F7019381F30193FD85916B
:101C100093FF81913F01882309F453C1853239F440
:101C200093FD859193FF81913F01853229F4B7019E
:101C300090E00E94E10FE7CF912C212C312CFFE1A5
:101C4000F31538F08B3211F190F4803209F18332C0
:101C500029F137FC3CC020ED280F2A3050F536FE24
:101C600020C08AE0989E200D1124922E06C08D324D
:101C700091F0803371F7689430F8F30193FD85910A
:101C800093FF81913F018111DACF21C0689431F82F
:101C9000689432F8F2CF689433F8EFCF689434F850
:101CA000ECCFEAE02E9E200D1124222E689435F808
:101CB000E4CF8E3229F436FC04C1689436F8DDCFC7
:101CC0008C3619F4689437F8D8CF8836B1F2982F4B
:101CD0009F7D95549330E0F08336A1F18337C1F1B5
:101CE000833509F063C02801F2E04F0E511CF80162
:101CF000C080D180692D70E036FC02C06FEF7FEFAD
:101D0000C6010E94CB0F4C01689437F882010AC0CB
:101D10000C5F1F4FFFE3F98388248394912C6501A6
:101D2000E89437F833FE2DC0522C8114910471F5DC
:101D3000552009F468CFB70180E290E00E94E10FDE
:101D40005A94F6CFF801808189830E5F1F4FE4CF4C
:101D50002801F2E04F0E511CF801C080D180692D9E
:101D600070E036FC02C06FEF7FEFC6010E94D60F15
:101D70004C018201D5CFB70180E290E00E94E10FD3
:101D80002A942814190409F0B0F7CECFF60137FCD5
:101D9000859137FE81916F01B70190E00E94E10FBC
:101DA00051105A94F1E08F1A9108BFCF843619F080
:101DB000893609F077C0F80137FE6BC06081718108
:101DC000828193810C5F1F4FF32DFF763F2E97FF8B
:101DD00009C090958095709561957F4F8F4F9F4F6B
:101DE000689437F82AE030E0A5010E941110C82E4F
:101DF000CA188C2C432C36FE0CC0E89440F8C91449
:101E000040F434FE05C032FC03C0F32DFE7E4F2E9D
:101E1000892C44FE95C0FE01EC0DF11D80818033BC
:101E200009F087C0242D297E422E842D8870582EDB
:101E300043FC95C040FE8FC09C2C821418F42C0CDF
:101E4000922C981844FE91C0B70180E390E00E9464
:101E5000E10F42FE09C088E790E041FE02C088E53C
:101E600090E0B7010E94E10FC91408F48AC0CA9437
:101E7000D12C9FEFC91AD90ACA0CDB1CF60182913A
:101E80006F01B70190E00E94E10FAC14BD04B1F7FF
:101E90004FCF60817181072E000C880B990B0E5F6C
:101EA0001F4F92CFD32CE894D4F82AE030E0853746
:101EB00039F1232D297FD22E8F3601F148F4883550
:101EC000A9F0F701868197812B96E2E10C948B10A3
:101ED000803749F08837A9F7D4FE02C06894D2F859
:101EE00020E130E00DC06894D4F8F6CF34FE03C092
:101EF000822F8660D82E20E132E002C028E030E058
:101F0000F801D7FE0FC060817181828193810C5FDF
:101F10001F4FA5010E941110C82ECA183D2CE8942D
:101F200037F867CF6081718190E080E00E5F1F4FCE
:101F3000F0CF42FC02C0839478CF8394839475CF12
:101F4000842D867809F471CFF6CFB70180E290E056
:101F50000E94E10F83948214C0F3512C73CF522C52
:101F60005818821408F46ECFF8CF842D867809F4BF
:101F70007BCF8BE241FE80E247FC8DE2B70190E02F
:101F800071CFB70180E390E00E94E10F9A946CCF8B
:101F90008FEF9FEF99CFFC010590615070400110C9
:101FA000D8F7809590958E0F9F1F0895FC01615082
:101FB000704001900110D8F7809590958E0F9F1F6B
:101FC00008950F931F93CF93DF93182F092FEB01E1
:101FD0008B8181FD09C01FEF0FEF812F902FDF91C3
:101FE000CF911F910F91089582FF14C02E813F81E0
:101FF0008C819D81281739073CF4E881F981CF0154
:1020000001969983888310838E819F8101969F8397
:102010008E83E3CFE885F985812F0995892BA1F37C
:10202000DACFFA01AA27283051F1203181F1E89462
:102030006F936E7F6E5F7F4F8F4F9F4FAF4FB1E0BB
:102040003ED0B4E03CD0670F781F891F9A1FA11DB6
:10205000680F791F8A1F911DA11D6A0F711D811DB7
:10206000911DA11D20D009F468943F912AE0269F7C
:1020700011243019305D3193DEF6CF010895462FDB
:102080004770405D4193B3E00FD0C9F7F6CF462FBC
:102090004F70405D4A3318F0495D31FD4052419325
:1020A00002D0A9F7EACFB4E0A695979587957795E2
:1020B0006795BA95C9F700976105710508959B0169
:1020C000AC010A2E06945795479537952795BA95F2
:1020D000C9F7620F731F841F951FA01D08952F92CB
:1020E0003F924F925F926F927F928F929F92AF92A8
:1020F000BF92CF92DF92EF92FF920F931F93CF93F5
:10210000DF93CDB7DEB7CA1BDB0B0FB6F894DEBF8B
:102110000FBECDBF09942A88398848885F846E84B1
:102120007D848C849B84AA84B984C884DF80EE80FB
:10213000FD800C811B81AA81B981CE0FD11D0FB604
:10214000F894DEBF0FBECDBFED010895F894FFCF28
:102150000000400014005400304050000000008295
:1021600002E2010F02CF0240021E02320200000012
:1021700000AD038003C304560379036603570300CD
:10218000000000FF06E201C304EF020D0A00434114
:102190004E20494420307800496E6974204D4350E8
:1021A000323531352E2E2E003078253033582054DC
:1021B000583A252D35750052582030782530336C2B
:1021C000583A252D35750052582030782D2D2D2068
:0821D0003A202020203000001D
:00000001FF
