:100000000C9462000C948A000C948A000C948A0070
:100010000C948A000C948A000C948A000C948A0038
:100020000C948A000C948A000C948A000C948A0028
:100030000C948A000C948A000C948A000C948A0018
:100040000C9441050C948A000C948A000C948A004C
:100050000C948A000C948A000C948A000C948A00F8
:100060000C948B050C948A000000000024002700EB
:100070002A0000000000250028002B0000000000DE
:1000800023002600290004040404040404040202DA
:100090000202020203030303030301020408102007
:1000A0004080010204081020010204081020000012
:1000B0000008000201000003040700000000000027
:1000C0000000AA0611241FBECFEFD8E0DEBFCDBFCF
:1000D00011E0A0E0B1E0E2E2F2E102C005900D9291
:1000E000AC34B107D9F722E0ACE4B1E001C01D9215
:1000F000AC32B207E1F710E0C2E6D0E004C02197CD
:10010000FE010E940909C136D107C9F70E94CA063B
:100110000C940F090C940000833081F028F4813096
:1001200099F08230A9F008958730A9F08830C9F09D
:100130008430B1F4809180008F7D03C08091800075
:100140008F7780938000089584B58F7784BD08955C
:1001500084B58F7DFBCF8091B0008F778093B00006
:1001600008958091B0008F7DF9CFCF93DF93282F32
:1001700030E0F901E255FF4F8491F901E656FF4F57
:10018000D491F901EA57FF4FC491CC23A1F081111A
:100190000E948C00EC2FF0E0EE0FFF1FE458FF4FA1
:1001A000A591B491EC91ED2381E090E009F480E019
:1001B000DF91CF91089580E090E0FACF1F93CF9325
:1001C000DF93282F30E0F901E255FF4F8491F901C8
:1001D000E656FF4FD491F901EA57FF4FC491CC2363
:1001E000A9F0162F81110E948C00EC2FF0E0EE0F89
:1001F000FF1FEE58FF4FA591B4918FB7F894EC9183
:10020000111108C0D095DE23DC938FBFDF91CF9111
:100210001F910895DE2BF8CFCF93DF9390E0FC0180
:10022000E656FF4F24918A579F4FFC018491882303
:10023000D1F090E0880F991FFC01E859FF4FA5917C
:10024000B491FC01EE58FF4FC591D491623071F426
:100250009FB7F8943C91822F809583238C93E881FB
:100260002E2B28839FBFDF91CF9108958FB7F894ED
:10027000EC912E2B2C938FBFF6CF1F93CF93DF9350
:10028000182FEB0161E00E940C01209739F460E027
:10029000812FDF91CF911F910C94DE00CF3FD105CC
:1002A00011F461E0F5CFE12FF0E0E255FF4FE4916A
:1002B000E33031F140F4E130B1F0E230E1F0C03848
:1002C000D1057CF7E4CFE73029F1E83059F1E4308B
:1002D000B1F780918000806280938000D0938B0082
:1002E000C0938A0004C084B5806884BDC7BDDF9117
:1002F000CF911F91089584B5806284BDC8BDF7CFAA
:1003000080918000806880938000D0938900C093A2
:100310008800EDCF8091B00080688093B000C093DA
:10032000B300E5CF8091B00080628093B000C093AD
:10033000B400DDCF8E50806480937C0080917A0081
:10034000806480937A0080917A0086FDFCCF809152
:1003500078009091790008953FB7F8948091100249
:1003600090911102A0911202B091130226B5A89BA0
:1003700005C02F3F19F00196A11DB11D3FBFBA2F37
:10038000A92F982F8827BC01CD01620F711D811DF7
:10039000911D42E0660F771F881F991F4A95D1F77C
:1003A00008958F929F92AF92BF92CF92DF92EF9279
:1003B000FF924B015C010E94AC016B017C010E9429
:1003C000AC016C197D098E099F09683E7340810557
:1003D0009105A8F321E0821A9108A108B10888EEDE
:1003E000C80E83E0D81EE11CF11C81149104A10405
:1003F000B10429F7FF90EF90DF90CF90BF90AF90BE
:100400009F908F90089508950895AF92BF92CF92D4
:10041000DF92EF92FF920F931F93CF93DF936C01C4
:100420007B018B01040F151FEB015E01AE18BF08A5
:10043000C017D10759F06991D601ED91FC91019057
:10044000F081E02DC6010995892B79F7C501DF916F
:10045000CF911F910F91FF90EF90DF90CF90BF90C1
:10046000AF900895089520918D01260F3327331FF3
:1004700021323105ECF42091D601FC0190E080E0BE
:10048000243069F082E00895A0918D012191AC01A2
:1004900043595E4FA40FB52FB11D2C9301968617BB
:1004A00098F380918D01680F60938D0180E008952D
:1004B00081E008951092D60181E08093D5011092D9
:1004C000B00161E082E10E94DE0061E083E10E9410
:1004D000DE00E9EBF0E080818E7F808380818D7F7C
:1004E000808388E48093B80085E48093BC000895FD
:1004F000CF93DF9391E090936C018823B9F0C09182
:10050000B800D091BA008091BC008A7B8093BC0077
:1005100060E082E10E94DE0060E083E10E94DE0094
:100520000E945A02D093BA00C093B800DF91CF91D5
:1005300008950895E091050280910402E81730F4CF
:10054000F0E0E45BFE4F808190E008958FEF9FEF35
:10055000089590910502809104022FEF3FEF9817C4
:1005600048F4E92FF0E0E45BFE4F208130E09F5F2C
:1005700090930502C90108958091040290910502AB
:10058000891B990B0895CF92DF92EF92FF920F9300
:100590001F93CF93DF937C01CB018A012091DC0173
:1005A000222389F0EB016B01C40ED51ECC15DD05AD
:1005B00069F06991D701ED91FC910190F081E02DF6
:1005C000C7010995F3CF642F0E943302C801DF9160
:1005D000CF911F910F91FF90EF90DF90CF900895F2
:1005E000CF93DF931F92CDB7DEB769832091DC01F3
:1005F0002223F9F020910202203258F021E030E06D
:10060000FC013383228390E080E00F90DF91CF9153
:10061000089580910302E82FF0E0E352FE4F9981A4
:1006200090838F5F809303028093020281E090E0C9
:10063000ECCF61E0CE0101960E943302F7CFCF925A
:10064000DF92EF92FF920F931F93CF93DF93FC0102
:10065000C48121E02093DC01C093FD0110920302CC
:10066000109202028385682B84E192E00E94F002DE
:10067000D0910202D13208F092C00E94AC016B010D
:100680007C018091D601811165C082E08093D60102
:1006900081E08093D5018FEF8093D4011092D30134
:1006A000D093D201ADEDB1E0E2EBF1E080E0D81300
:1006B00085C01092B1018091B101CC0FC82BC093BD
:1006C000B1018091B001813009F07CC01092B0017D
:1006D0000E94AC016B017C018091B1018093BB0051
:1006E0008091D8019091D901A091DA01B091DB01FC
:1006F000892B8A2B8B2B99F00E94AC010091D80199
:100700001091D9012091DA013091DB016C197D093A
:100710008E099F090617170728073907E0F180910E
:10072000BC0083FDD9CF85EC8093BC000E94AC0156
:100730006B017C018091D601823009F445C0809123
:10074000D4018F3F61F18091D401803241F18091D9
:10075000D40125C08091D8019091D901A091DA01EE
:10076000B091DB01892B8A2B8B2B09F48ACF0E9455
:10077000AC010091D8011091D9012091DA0130919A
:10078000DB016C197D098E099F09061717072807D9
:10079000390708F076CF8091D7010E947802109235
:1007A0000302109202021092DC01DF91CF911F919F
:1007B0000F91FF90EF90DF90CF9008959D919193CE
:1007C0008F5F75CF85EEB0CF8091D8019091D90120
:1007D000A091DA01B091DB01892B8A2B8B2B09F4D4
:1007E000A9CF0E94AC010091D8011091D9012091AC
:1007F000DA013091DB016C197D098E099F0906171A
:1008000017072807390708F095CFC5CF90E080E09B
:1008100008958F929F92AF92BF920F931F93CF93A1
:10082000DF93CDB7DEB7A1970FB6F894DEBF0FBE4A
:10083000CDBF19A2423008F44AE08E010F5D1F4F70
:10084000842E912CB12CA12CA50194010E94D308D7
:10085000E62FB901CA01EA3044F5E05DD801EE9314
:100860008D01232B242B252B79F790E080E0109726
:1008700069F0FD0101900020E9F73197AF014A1BB3
:100880005B0BBD0180E292E00E940502A1960FB6CB
:10089000F894DEBF0FBECDBFDF91CF911F910F91B6
:1008A000BF90AF909F908F900895E95CD7CFFC01E7
:1008B00001900020E9F73197AF01481B590BBC01AB
:1008C00080E292E00C9405020F931F93CF938C016A
:1008D000C62F0E941F036C2F6460C8010E941F0373
:1008E0006C2F6B7FC8010E941F0383EC90E001977F
:1008F000F1F7CF911F910F9108950F931F93CF930D
:10090000DF938C01D62FC42F607F642B0E94640478
:1009100080E1D89FB00111246C2BC801DF91CF91E9
:100920001F910F910C94640441E00E947D0481E0CA
:1009300090E0089541E0682F80E292E00E947D04FB
:1009400081E090E00895CF92DF92EF92FF926C01E8
:1009500088EEC81683E0D8068CF480E20E949A04E0
:1009600084E6C816D10454F480E20E949A048AE016
:10097000C816D1041CF480E20E949A040D2C000CCD
:10098000EE08FF084AE0C701B601F7FE0BC08DE292
:100990000E949A0466277727CB016C197D098E097E
:1009A0009F094AE0FF90EF90DF90CF900C940904EC
:1009B000CF93DF93CDB7DEB728970FB6F894DEBF9D
:1009C0000FBECDBF98E0E0E0F1E0DE0111960190AE
:1009D0000D929A95E1F790912802981708F48FEFFD
:1009E00090E0880F991F21E030E02C0F3D1F820F0F
:1009F000931FFC016081606840E080E292E02896ED
:100A00000FB6F894DEBF0FBECDBFDF91CF910C942F
:100A10007D0485ED8093BC008091D8019091D9012F
:100A2000A091DA01B091DB010796A11DB11D23E071
:100A3000B695A795979587952A95D1F72091BC00F3
:100A400024FD03C01092D60108954091D801509121
:100A5000D9016091DA017091DB01452B462B472BC0
:100A600069F30097A105B10541F02AE22A95F1F753
:100A700000C00197A109B109E1CF8091D7010C9481
:100A800078021F920F920FB60F9211242F933F936B
:100A90008F939F93AF93BF9380910C0290910D021F
:100AA000A0910E02B0910F0230910B0223E0230FB0
:100AB0002D3758F50196A11DB11D20930B0280938F
:100AC0000C0290930D02A0930E02B0930F0280913E
:100AD000100290911102A0911202B091130201969E
:100AE000A11DB11D8093100290931102A0931202D8
:100AF000B0931302BF91AF919F918F913F912F912E
:100B00000F900FBE0F901F90189526E8230F0296A6
:100B1000A11DB11DD2CF1F920F920FB60F921124BB
:100B20002F933F934F935F936F937F938F939F93F5
:100B3000AF93BF93EF93FF938091B900887F803686
:100B400009F44AC0F0F5883209F4A7C018F58031DD
:100B500009F49BC0B8F4882309F4F9C0883009F47B
:100B600094C0FF91EF91BF91AF919F918F917F9131
:100B70006F915F914F913F912F910F900FBE0F900A
:100B80001F901895883109F488C0803251F78093FE
:100B9000D40114C0803409F49DC040F48033B9F30B
:100BA0008833F9F68093D40185ECB0C0803509F420
:100BB00085C0883509F496C0883499F60E940905E5
:100BC000D0CF883909F48CC038F5883729F050F433
:100BD000883611F0803729F683E08093D601109291
:100BE000AF0157C0883809F47BC0803919F08038CC
:100BF00009F0B7CF8091AF01803208F071C0E09169
:100C0000AF0181E08E0F8093AF018091BB00F0E0D7
:100C1000E157FE4F80833DC0803B39F0E0F4803ADD
:100C200009F479C0883A09F09CCF84E08093D6011A
:100C300010928E0110928D01E0910002F09101025C
:100C4000099580918D0181110FC081E080938D0104
:100C500010926D0109C0803C09F4A6CF883C09F4CC
:100C6000A3CF883B09F07DCFE0918E0181E08E0F0C
:100C700080938E01F0E0E359FE4F80818093BB00AA
:100C800090918E0180918D0129C08091B101809356
:100C9000BB0085EC8093BC0064CF9091D301809120
:100CA000D201981758F5E091D30181E08E0F80931F
:100CB000D301F0E0EE54FE4F8081E9CFE091D30103
:100CC00081E08E0F8093D3018091BB00F0E0EE5461
:100CD000FE4F80839091D3018091D2019817C8F282
:100CE00085E8D8CFE091D30181E08E0F8093D301C6
:100CF0008091BB00F0E0EE54FE4F80838091D501DF
:100D000081115CCF81E08093B00184EA8093BC00C4
:100D10001092D60126CF85EC8093BC001092D601AC
:100D20008091AF01803230F4E091AF01F0E0E15703
:100D3000FE4F10826091AF0170E0E091FE01F091F2
:100D4000FF018FE891E009951092AF010ACF109250
:100D5000D40134CFE4E1F2E01382128288EE93E012
:100D6000A0E0B0E084839583A683B7838CE091E014
:100D700091838083E0E2F2E0138212828EE191E0BF
:100D80009183808387E2848380E1818782E0828708
:100D900013860895CF93DF9300D000D0CDB7DEB790
:100DA000789484B5826084BD84B5816084BD85B546
:100DB000826085BD85B5816085BD80916E00816052
:100DC00080936E00109281008091810082608093F8
:100DD00081008091810081608093810080918000FA
:100DE0008160809380008091B10084608093B10025
:100DF0008091B00081608093B00080917A0084601F
:100E000080937A0080917A00826080937A0080914A
:100E10007A00816080937A0080917A008068809364
:100E20007A001092C10061E083E00E940C0161E051
:100E300084E00E940C0161E08DE00E940C0161E001
:100E400086E00E940C0162E082E10E940C0162E0F7
:100E500083E10E940C0162E089E00E940C0162E0E3
:100E600088E00E940C011092050210920402109278
:100E70000302109202020E945A0283E092E09093D1
:100E800001028093000284E092E09093FF0180933E
:100E9000FE011092250280912A02823018F098E01B
:100EA000909325028093280262E370E080E090E056
:100EB0000E94D10160912B0280E292E00E941F0308
:100EC00068EE73E080E090E00E94D10160E380E290
:100ED00092E00E9464048BE496E40197F1F760E3EA
:100EE00080E292E00E9464042BE436E4C901019799
:100EF000F1F760E380E292E00E94640483E592E00F
:100F00000197F1F760E280E292E00E946404609150
:100F10002502606240E080E292E00E947D0484E06D
:100F20008093260240E06CE080E292E00E947D0423
:100F300040E061E080E292E00E947D048BE39FE16B
:100F40000197F1F782E08093270240E066E080E2BB
:100F500092E00E947D0440E062E080E292E00E9424
:100F60007D048BE39FE10197F1F788E080932B02EA
:100F700060E080E292E00E941F0380E00E94D804BB
:100F800086E291E00E94570481E00E94D80484E345
:100F900091E00E94570460E273E080E090E00E94DC
:100FA000D10140E061E080E292E00E947D042BE309
:100FB0003FE1C9010197F1F78EE00E949A016C01AF
:100FC0008FE00E949A017C0180E10E949A015C01FD
:100FD00081E10E949A019C838B83B6017595679588
:100FE0007595679583E00E943D01B70175956795FA
:100FF0007595679586E00E943D0182E10E94B500EB
:101000008C0183E10E94B5004C0189E00E94B5008B
:101010001C0188E00E94B5009A83898361E0011574
:10102000110509F060E084E00E94DE008FB7F894BB
:1010300040900C0250900D0260900E0270900F02D2
:101040008FBF8091070290910802A0910902B09190
:101050000A02A3019201281B390B4A0B5B0BDA0130
:10106000C9018A3F9105A105B10588F0609106028A
:1010700031E06327609306028DE00E94DE0040921B
:101080000702509208026092090270920A0280E000
:101090000E94D8048BE391E00E945704C6010E948D
:1010A000A3048FE391E00E945704C7010E94A304A8
:1010B00081E00E94D80484E491E00E94570480E318
:1010C000012B09F481E30E949A0480E3892809F442
:1010D00081E30E949A0480E3232809F481E30E94BB
:1010E0009A0449815A8180E3452B09F481E30E94E7
:1010F0009A0487E491E00E945704C5010E94A3046A
:101100008FE20E949A048B819C81843691055CF465
:1011100080E20E949A042B813C812A3031051CF424
:1011200080E20E949A048B819C816AE070E00E94B8
:10113000BF086B01072E000CEE08FF0877FF1BC0ED
:101140008DE20E949A0466277727CB016C197D09EE
:101150008E099F094AE00E94090468E270E080E07D
:1011600090E00E94D10140E050E0452B09F424CFEB
:101170000E94000021CF4AE0C701B601ECCF97FBE7
:10118000072E16F4009407D077FD09D00E94F508C9
:1011900007FC05D03EF4909581959F4F089570957A
:1011A00061957F4F0895A1E21A2EAA1BBB1BFD017A
:1011B0000DC0AA1FBB1FEE1FFF1FA217B307E40736
:1011C000F50720F0A21BB30BE40BF50B661F771F8E
:1011D000881F991F1A9469F760957095809590956E
:1011E0009B01AC01BD01CF010895AA1BBB1B51E1BE
:1011F00007C0AA1FBB1FA617B70710F0A61BB70B87
:10120000881F991F5A95A9F780959095BC01CD012B
:101210000895EE0FFF1F0590F491E02D0994F894C6
:02122000FFCFFE
:10122200000040001400540000000000F002C3025D
:1012320006049902BC02A9029A020000000094046A
:10124200050206043202414E454220492F4F2074C6
:101252006573740052656164792E0041303A002052
:0C12620041313A00443A002041323A0089
:00000001FF
